00000000000000000000P2002111903174TEST                          03174                                                                                                                                                                                                                                                                                                                                                                                                                                                              000000295
1000000000401111180900264000012002111800000000                  +000000000000000+00000000000000000                                                                                    AA0A                                                                                                                                                                                                                                                                                                                                         000000295
2000000000401111180900264000012002111820021118000000000000103899+000000002630670+00000000002630670ACB CREDIT           SETTLEMENT                   BASGHW    GP HEALTH000212608  FN71ACC +000000000 +000000000+000000000 000012533000000004000000000000000000000000000000000000000                             0012            000000000000000                                                                                                   0000000000000000                0000000000000000000                              0000002955151
2000000000401111180900264000012002111820021118000000000000056571+000000000649363+00000000003280033CREDIT TRANSFER      CASHFOCUS                    440151586                     CF71CFAC+000000000 +000000000+000000000 000012537000000006000000000000000000000000000000000000000                             0510            000000000000000                                                                                                   0000000000000000                0000000000000000000                              0000002955158
2000000000401111180900264000012002111820021118000000000000056572+000000000305575+00000000003585608CREDIT TRANSFER      CASHFOCUS                    440151579                     CF71CFAC+000000000 +000000000+000000000 000012538000000008000000000000000000000000000000000000000                             0510            000000000000000                                                                                                   0000000000000000                0000000000000000000                              0000002955158
2000000000401111180900264000012002111820021118000000000000000000+000000000057866+00000000003643474DEPOSIT              STRYDOMPAR                   440144444                     FN71QD  +000000000 +000000000+000000000 000012539000000010000000000000000000000000000000000000000                             2740            000000000000000                                                                                                   0000000000000000                0000000000000000000                              0000002955151
2000000000401111180900264000012002111820021118000000000000000000+000000000031699+00000000003675173DEPOSIT              STRYDOMPAR                   440144437                     FN71QD  +000000000 +000000000+000000000 000012540000000012000000000000000000000000000000000000000                             2740            000000000000000                                                                                                   0000000000000000                0000000000000000000                              0000002955151
2000000000401111180900264000012002111820021118000000000000000000+000000001141155+00000000004816328DEPOSIT              KNYSNA                       440102250                     FN71QD  +000000000 +000000000+000000000 000012542000000014000000000000000000000000000000000000000                             2740            000000000000000                                                                                                   0000000000000000                0000000000000000000                              0000002955151
2000000000401111180900264000012002111820021118000000000000000000+000000001524408+00000000006340736DEPOSIT              FOURWAYS                     440066010                     FN71QD  +000000000 +000000000+000000000 000012544000000016000000000000000000000000000000000000000                             2740            000000000000000                                                                                                   0000000000000000                0000000000000000000                              0000002955151
2000000000401111180900264000012002111820021118000000000000000000+000000000139741+00000000006480477DEPOSIT              EASTGATE                     440015738                     FN71QD  +000000000 +000000000+000000000 000012545000000018000000000000000000000000000000000000000                             2740            000000000000000                                                                                                   0000000000000000                0000000000000000000                              0000002955151
2000000000401111180900264000012002111820021118000000000000000000+000000000183475+00000000006663952DEPOSIT              EASTGATE                     440015720                     FN71QD  +000000000 +000000000+000000000 000012546000000020000000000000000000000000000000000000000                             2740            000000000000000                                                                                                   0000000000000000                0000000000000000000                              0000002955151
2000000000401111180900264000012002111820021118000000000000000000+000000003650595+00000000010314547DEPOSIT              RSEBNK CEN                   440072670                     FN71QD  +000000000 +000000000+000000000 000012548000000022000000000000000000000000000000000000000                             2740            000000000000000                                                                                                   0000000000000000                0000000000000000000                              0000002955151
2000000000401111180900264000012002111820021118000000000000000000+000000000226313+00000000010540860DEPOSIT              PROTEA PAR                   440081667                     FN71QD  +000000000 +000000000+000000000 000012549000000024000000000000000000000000000000000000000                             2740            000000000000000                                                                                                   0000000000000000                0000000000000000000                              0000002955151
2000000000401111180900264000012002111820021118000000000000000000+000000000172368+00000000010713228DEPOSIT              PROTEA PAR                   440086150                     FN71QD  +000000000 +000000000+000000000 000012550000000026000000000000000000000000000000000000000                             2740            000000000000000                                                                                                   0000000000000000                0000000000000000000                              0000002955151
2000000000401111180900264000012002111820021118000000000000000000+000000000404852+00000000011118080DEPOSIT              EST RAND M                   440131727                     FN71QD  +000000000 +000000000+000000000 000012552000000028000000000000000000000000000000000000000                             2740            000000000000000                                                                                                   0000000000000000                0000000000000000000                              0000002955151
2000000000401111180900264000012002111820021118000000000000000000+000000000246492+00000000011364572DEPOSIT              EST RAND M                   440131727                     FN71QD  +000000000 +000000000+000000000 000012553000000030000000000000000000000000000000000000000                             2740            000000000000000                                                                                                   0000000000000000                0000000000000000000                              0000002955151
2000000000401111180900264000012002111820021118000000000000000000+000000000323331+00000000011687903DEPOSIT              EASTGATE                     440080127                     FN71QD  +000000000 +000000000+000000000 000012554000000032000000000000000000000000000000000000000                             2740            000000000000000                                                                                                   0000000000000000                0000000000000000000                              0000002955151
2000000000401111180900264000012002111820021118000000000000000000+000000000128638+00000000011816541DEPOSIT              HYDE PARK                    440022703                     FN71QD  +000000000 +000000000+000000000 000012555000000034000000000000000000000000000000000000000                             2740            000000000000000                                                                                                   0000000000000000                0000000000000000000                              0000002955151
2000000000401111180900264000022002111820021118000000000000000000+000000000190220+00000000012006761DEPOSIT              HYDE PARK                    440022728                     FN71QD  +000000000 +000000000+000000000 000012556000000002000000000000000000000000000000000000000                             2740            000000000000000                                                                                                   0000000000000000                0000000000000000000                              0000002955151
2000000000401111180900264000022002111820021118000000000000000000+000000000054538+00000000012061299DEPOSIT              HYDE PARK                    440022710                     FN71QD  +000000000 +000000000+000000000 000012557000000004000000000000000000000000000000000000000                             2740            000000000000000                                                                                                   0000000000000000                0000000000000000000                              0000002955151
2000000000401111180900264000022002111820021118000000000000000000+000000000016872+00000000012078171TRANSFER FROM        PRIMROSE                     440074532                     FN71TXCR+000000000 +000000000+000000000 000012558000000006000000000000000000000000000000000000000                             4240            000000000000000                                                                                                   0000000000000000                0000000000000000000                              0000002955151
2000000000401111180900264000022002111820021118000000000000000000+000000000300000+00000000012378171DEPOSIT              LYTTELTON                    440149650                     FN71QD  +000000000 +000000000+000000000 000012559000000008000000000000000000000000000000000000000                             2740            000000000000000                                                                                                   0000000000000000                0000000000000000000                              0000002955151
2000000000401111180900264000022002111820021118000000000000000000+000000000340000+00000000012718171DEPOSIT              LYTTELTON                    440149643                     FN71QD  +000000000 +000000000+000000000 000012560000000010000000000000000000000000000000000000000                             2740            000000000000000                                                                                                   0000000000000000                0000000000000000000                              0000002955151
2000000000401111180900264000022002111820021118000000000000056605+000000000150000+00000000012868171CREDIT TRANSFER      CASHFOCUS                    440012751                     CF71CFAC+000000000 +000000000+000000000 000012561000000012000000000000000000000000000000000000000                             0510            000000000000000                                                                                                   0000000000000000                0000000000000000000                              0000002955158
2000000000401111180900264000022002111820021118000000000000000000+000000000123750+00000000012991921ACB CREDIT           SETTLEMENT                   ABSA BANK 440077283           FN71ACC +000000000 +000000000+000000000 000012562000000014000000000000000000000000000000000000000                             0012            000000000000000                                                                                                   0000000000000000                0000000000000000000                              0000002955151
2000000000401111180900264000022002111820021118000000000000000000+000000000033744+00000000013025665ACB CREDIT           SETTLEMENT                   ABSA BANK 440077290           FN71ACC +000000000 +000000000+000000000 000012563000000016000000000000000000000000000000000000000                             0012            000000000000000                                                                                                   0000000000000000                0000000000000000000                              0000002955151
2000000000401111180900264000022002111820021118000000000000000000+000000000107274+00000000013132939ACB CREDIT           SETTLEMENT                   ABSA BANK 440077300           FN71ACC +000000000 +000000000+000000000 000012564000000018000000000000000000000000000000000000000                             0012            000000000000000                                                                                                   0000000000000000                0000000000000000000                              0000002955151
2000000000401111180900264000022002111820021118000000000000000000+000000000025308+00000000013158247ACB CREDIT           SETTLEMENT                   ABSA BANK 440077269           FN71ACC +000000000 +000000000+000000000 000012565000000020000000000000000000000000000000000000000                             0012            000000000000000                                                                                                   0000000000000000                0000000000000000000                              0000002955151
2000000000401111180900264000022002111820021118000000000000000000+000000000130788+00000000013289035ACB CREDIT           SETTLEMENT                   ABSA BANK 440077276           FN71ACC +000000000 +000000000+000000000 000012566000000022000000000000000000000000000000000000000                             0012            000000000000000                                                                                                   0000000000000000                0000000000000000000                              0000002955151
2000000000401111180900264000022002111820021118000000000000016406+000000000017898+00000000013306933ACB CREDIT           SETTLEMENT                   440085319      *              FN71ACC +000000000 +000000000+000000000 000012568000000024000000000000000000000000000000000000000                             0012            000000000000000                                                                                                   0000000000000000                0000000000000000000                              0000002955151
2000000000401111180900264000022002111820021118000000000000019087+000000000118814+00000000013425747ACB CREDIT           SETTLEMENT                   440071299 STAND 146 KYA SAND  FN71ACC +000000000 +000000000+000000000 000012569000000026000000000000000000000000000000000000000                             0012            000000000000000                                                                                                   0000000000000000                0000000000000000000                              0000002955151
2000000000401111180900264000022002111820021118000000000000019088+000000000090493+00000000013516240ACB CREDIT           SETTLEMENT                   440071281 STAND 146 KYA SAND  FN71ACC +000000000 +000000000+000000000 000012570000000028000000000000000000000000000000000000000                             0012            000000000000000                                                                                                   0000000000000000                0000000000000000000                              0000002955151
2000000000401111180900264000022002111820021118000000000000016407+000000000064389+00000000013580629ACB CREDIT           SETTLEMENT                   440085326      *              FN71ACC +000000000 +000000000+000000000 000012571000000030000000000000000000000000000000000000000                             0012            000000000000000                                                                                                   0000000000000000                0000000000000000000                              0000002955151
2000000000401111180900264000022002111820021118000000000000019752+000000000391562+00000000013972191ACB CREDIT           SETTLEMENT                   440136637-FEDBOND             FN71ACC +000000000 +000000000+000000000 000012572000000032000000000000000000000000000000000000000                             0012            000000000000000                                                                                                   0000000000000000                0000000000000000000                              0000002955151
2000000000401111180900264000022002111820021118000000000000010211+000000001077862+00000000015050053ACB CREDIT           SETTLEMENT                   440141203      *              FN71ACC +000000000 +000000000+000000000 000012573000000034000000000000000000000000000000000000000                             0012            000000000000000                                                                                                   0000000000000000                0000000000000000000                              0000002955151
2000000000401111180900264000032002111820021118000000000000019158+000000002000000+00000000017050053ACB CREDIT           SETTLEMENT                   440062135      *              FN71ACC +000000000 +000000000+000000000 000012574000000002000000000000000000000000000000000000000                             0012            000000000000000                                                                                                   0000000000000000                0000000000000000000                              0000002955151
2000000000401111180900264000032002111820021118000000000000001492+000000001389660+00000000018439713ACB CREDIT           SETTLEMENT                   FNBPAYMENT 440141556          FN71ACC +000000000 +000000000+000000000 000012575000000004000000000000000000000000000000000000000                             0012            000000000000000                                                                                                   0000000000000000                0000000000000000000                              0000002955151
2000000000401111180900264000032002111820021118000000000000011274+000000000012426+00000000018452139ACB CREDIT           SETTLEMENT                   2073913575**440176534 PRIMEGROFN71ACC +000000000 +000000000+000000000 000012576000000006000000000000000000000000000000000000000                             0012            000000000000000                                                                                                   0000000000000000                0000000000000000000                              0000002955151
2000000000401111180900264000032002111820021118000000000000006888+000000000149270+00000000018601409ACB CREDIT           SETTLEMENT                   2073888701COLLIERS RMS  000580FN71ACC +000000000 +000000000+000000000 000012577000000008000000000000000000000000000000000000000                             0012            000000000000000                                                                                                   0000000000000000                0000000000000000000                              0000002955151
2000000000401111180900264000032002111820021118000000000000006889+000000000788054+00000000019389463ACB CREDIT           SETTLEMENT                   2073888702COLLIERS RMS  000581FN71ACC +000000000 +000000000+000000000 000012578000000010000000000000000000000000000000000000000                             0012            000000000000000                                                                                                   0000000000000000                0000000000000000000                              0000002955151
2000000000401111180900264000032002111820021118000000000000011273+000000000498351+00000000019887814ACB CREDIT           SETTLEMENT                   2073913574**440131283 PRIMEGROFN71ACC +000000000 +000000000+000000000 000012579000000012000000000000000000000000000000000000000                             0012            000000000000000                                                                                                   0000000000000000                0000000000000000000                              0000002955151
2000000000401111180900264000032002111820021118000000000000001108+000000000259414+00000000020147228ACB CREDIT           SETTLEMENT                   440064559                     FN71ACC +000000000 +000000000+000000000 000012580000000014000000000000000000000000000000000000000                             0012            000000000000000                                                                                                   0000000000000000                0000000000000000000                              0000002955151
2000000000401111180900264000032002111820021118000000000000004714+000000000017898+00000000020165126ACB CREDIT           SETTLEMENT                   CRONJE         440107442 GS CRFN71ACC +000000000 +000000000+000000000 000012581000000016000000000000000000000000000000000000000                             0012            000000000000000                                                                                                   0000000000000000                0000000000000000000                              0000002955151
2000000000401111180900264000032002111820021118000000000000004713+000000000303949+00000000020469075ACB CREDIT           SETTLEMENT                   CRONJE         440107450 GS CRFN71ACC +000000000 +000000000+000000000 000012582000000018000000000000000000000000000000000000000                             0012            000000000000000                                                                                                   0000000000000000                0000000000000000000                              0000002955151
2000000000401111180900264000032002111820021118000000000000002512+000000000085000+00000000020554075ACB CREDIT           SETTLEMENT                   ROBINSON       A/C440110004   FN71ACC +000000000 +000000000+000000000 000012583000000020000000000000000000000000000000000000000                             0012            000000000000000                                                                                                   0000000000000000                0000000000000000000                              0000002955151
2000000000401111180900264000032002111820021118081409096000000000-000000000001000+00000000020553075BANK DEBIT 81409096  HEADOFFICE                                                 FN71CHJ -000000175 -000000020+000000000 000012584000000022000000000000000000000000000000000000000                             0790            000000000000000                                                                                                   0000000000000000                0000000000000000000                              0000002950505
2000000000401111180900264000032002111820021118081409306000000000-000000000001000+00000000020552075BANK DEBIT 81409306  HEADOFFICE                                                 FN71CHJ -000000175 -000000020+000000000 000012585000000023000000000000000000000000000000000000000                             0790            000000000000000                                                                                                   0000000000000000                0000000000000000000                              0000002950505
2000000000401111180900264000032002111820021118000000000000000433-000000020552075+00000000000000000SWEEPING             CASHFOCUS                          4054394859 TR#     433  CF71FS4D+000000000 -000000020+000000000 000012586000000024000000000000000000000000000000000000000                             1840            000000000000000                                                                                                   0000000000000000                0000000000000000000                              0000002950521
89999999999999999999                                            +00000000000000000                                                                                                           0000000048                                                                                                                                                                                                                                                                                                                            000000295
99999999999999999999P20021119                                                                                                                                                                0000000050                                                                                                                                                                                                                                                                                                                            000000295
